:100000000C9434000C943E000C943E000C943E0082
:100010000C943E000C943E000C943E000C943E0068
:100020000C943E000C943E000C943E000C943E0058
:100030000C943E000C943E000C943E000C943E0048
:100040000C943E000C943E000C943E000C943E0038
:100050000C943E000C943E000C943E000C943E0028
:100060000C943E000C943E0011241FBECFEFD8E04C
:10007000DEBFCDBF0E9440000C94B3000C94000082
:100080008FEF8AB91BB887B18C6187B93D9884B16D
:10009000856084B985B18A7F85B981E08BB988B1E3
:1000A000837E88B930E08FEF4FEF50E061E0289A0F
:1000B0009AE09A95F1F700C02A9AE5E0EA95F1F7FF
:1000C00000002A98F5E0FA95F1F70000289895E0ED
:1000D0009A95F1F7000098E020E0220F3599216011
:1000E0002A9AE5E0EA95F1F700002A98F5E0FA95FA
:1000F000F1F70000915089F7421333C0333048F4D0
:100100003F5FEFE3FCE93197F1F700C00000422FB9
:10011000CECF8217B1F380E090E0E22FF0E0DF0174
:10012000082E02C0B595A7950A94E2F7A0FD13C06A
:10013000482F581769F0E62F082E01C0EE0F0A94D9
:10014000EAF7EBB998B1937E880F880F892B88B9AD
:10015000822F542FD6CF01968830910501F7822F38
:0A016000D0CF30E0CECFF894FFCFEF
:00000001FF
