:100000000C9434000C943E000C943E000C943E0082
:100010000C943E000C943E000C943E000C943E0068
:100020000C943E000C943E000C943E000C943E0058
:100030000C943E000C943E000C943E000C943E0048
:100040000C943E000C943E000C943E000C943E0038
:100050000C943E000C943E000C943E000C943E0028
:100060000C943E000C943E0011241FBECFEFD8E04C
:10007000DEBFCDBF0E9440000C9467000C940000CE
:100080008FEF8AB91BB887B18C6187B981E08BB9D2
:1000900088B1837E88B980E041E02FEF39E698E1AE
:1000A000215030409040E1F700C000008F5F877022
:1000B000242F082E01C0220F0A94EAF72BB928B189
:1000C000237E982F990F990F922B98B9E6CFF89429
:0200D000FFCF60
:00000001FF
